{
  "_format": "hh-sol-artifact-1",
  "contractName": "FreelanceContract",
  "sourceName": "contracts/Stelle.sol",
  "abi": [
    {
      "inputs": [
        {
          "internalType": "address",
          "name": "_client",
          "type": "address"
        },
        {
          "internalType": "uint256",
          "name": "_deadline",
          "type": "uint256"
        },
        {
          "internalType": "uint256",
          "name": "_compensation",
          "type": "uint256"
        },
        {
          "internalType": "string",
          "name": "_projectDescription",
          "type": "string"
        }
      ],
      "stateMutability": "nonpayable",
      "type": "constructor"
    },
    {
      "inputs": [],
      "name": "client",
      "outputs": [
        {
          "internalType": "address",
          "name": "",
          "type": "address"
        }
      ],
      "stateMutability": "view",
      "type": "function"
    },
    {
      "inputs": [],
      "name": "compensation",
      "outputs": [
        {
          "internalType": "uint256",
          "name": "",
          "type": "uint256"
        }
      ],
      "stateMutability": "view",
      "type": "function"
    },
    {
      "inputs": [],
      "name": "completeProject",
      "outputs": [],
      "stateMutability": "nonpayable",
      "type": "function"
    },
    {
      "inputs": [],
      "name": "deadline",
      "outputs": [
        {
          "internalType": "uint256",
          "name": "",
          "type": "uint256"
        }
      ],
      "stateMutability": "view",
      "type": "function"
    },
    {
      "inputs": [],
      "name": "freelancer",
      "outputs": [
        {
          "internalType": "address",
          "name": "",
          "type": "address"
        }
      ],
      "stateMutability": "view",
      "type": "function"
    },
    {
      "inputs": [],
      "name": "projectCompleted",
      "outputs": [
        {
          "internalType": "bool",
          "name": "",
          "type": "bool"
        }
      ],
      "stateMutability": "view",
      "type": "function"
    },
    {
      "inputs": [],
      "name": "projectDescription",
      "outputs": [
        {
          "internalType": "string",
          "name": "",
          "type": "string"
        }
      ],
      "stateMutability": "view",
      "type": "function"
    },
    {
      "inputs": [],
      "name": "withdrawCompensation",
      "outputs": [],
      "stateMutability": "nonpayable",
      "type": "function"
    }
  ],
  "bytecode": "0x608060405234801561001057600080fd5b5060405161072b38038061072b83398101604081905261002f91610099565b60008054336001600160a01b031991821617909155600180549091166001600160a01b03861617905560028390556003829055600461006e8282610221565b50506005805460ff19169055506102e0915050565b634e487b7160e01b600052604160045260246000fd5b600080600080608085870312156100af57600080fd5b84516001600160a01b03811681146100c657600080fd5b602086810151604088015160608901519397509095509350906001600160401b03808211156100f457600080fd5b818801915088601f83011261010857600080fd5b81518181111561011a5761011a610083565b604051601f8201601f19908116603f0116810190838211818310171561014257610142610083565b816040528281528b8684870101111561015a57600080fd5b600093505b8284101561017c578484018601518185018701529285019261015f565b600086848301015280965050505050505092959194509250565b600181811c908216806101aa57607f821691505b6020821081036101ca57634e487b7160e01b600052602260045260246000fd5b50919050565b601f82111561021c576000816000526020600020601f850160051c810160208610156101f95750805b601f850160051c820191505b8181101561021857828155600101610205565b5050505b505050565b81516001600160401b0381111561023a5761023a610083565b61024e816102488454610196565b846101d0565b602080601f831160018114610283576000841561026b5750858301515b600019600386901b1c1916600185901b178555610218565b600085815260208120601f198616915b828110156102b257888601518255948401946001909101908401610293565b50858210156102d05787850151600019600388901b60f8161c191681555b5050505050600190811b01905550565b61043c806102ef6000396000f3fe608060405234801561001057600080fd5b50600436106100885760003560e01c806387a15dc91161005b57806387a15dc9146100f2578063a37dda2c146100fc578063c62218781461010f578063fc0e97391461012c57600080fd5b8063109e94cf1461008d57806329dcb0cf146100bd57806340d5ff58146100d4578063755f047b146100dd575b600080fd5b6001546100a0906001600160a01b031681565b6040516001600160a01b0390911681526020015b60405180910390f35b6100c660025481565b6040519081526020016100b4565b6100c660035481565b6100e5610134565b6040516100b4919061037d565b6100fa6101c2565b005b6000546100a0906001600160a01b031681565b60055461011c9060ff1681565b60405190151581526020016100b4565b6100fa6102bd565b60048054610141906103cc565b80601f016020809104026020016040519081016040528092919081815260200182805461016d906103cc565b80156101ba5780601f1061018f576101008083540402835291602001916101ba565b820191906000526020600020905b81548152906001019060200180831161019d57829003601f168201915b505050505081565b6001546001600160a01b0316331461022c5760405162461bcd60e51b815260206004820152602260248201527f4f6e6c7920636c69656e742063616e2063616c6c20746869732066756e63746960448201526137b760f11b60648201526084015b60405180910390fd5b60055460ff1661027e5760405162461bcd60e51b815260206004820152601960248201527f50726f6a656374206e6f7420636f6d706c6574656420796574000000000000006044820152606401610223565b6001546003546040516001600160a01b039092169181156108fc0291906000818181858888f193505050501580156102ba573d6000803e3d6000fd5b50565b6000546001600160a01b031633146103265760405162461bcd60e51b815260206004820152602660248201527f4f6e6c7920667265656c616e6365722063616e2063616c6c20746869732066756044820152653731ba34b7b760d11b6064820152608401610223565b60025442111561036e5760405162461bcd60e51b8152602060048201526013602482015272111958591b1a5b99481a185cc81c185cdcd959606a1b6044820152606401610223565b6005805460ff19166001179055565b60006020808352835180602085015260005b818110156103ab5785810183015185820160400152820161038f565b506000604082860101526040601f19601f8301168501019250505092915050565b600181811c908216806103e057607f821691505b60208210810361040057634e487b7160e01b600052602260045260246000fd5b5091905056fea2646970667358221220104e3f93a882cc36f927cb0cf4fe92625c4b660ceb17ac8eb211cdb5c6ec8ea864736f6c63430008180033",
  "linkReferences": {},
  "deployedLinkReferences": {}
}